{
  "_format": "hh-sol-artifact-1",
  "contractName": "ExpensiveFallback",
  "sourceName": "contracts/ExpensiveFallback.sol",
  "abi": [
    {
      "inputs": [
        {
          "internalType": "address",
          "name": "_weth",
          "type": "address"
        }
      ],
      "stateMutability": "nonpayable",
      "type": "constructor"
    },
    {
      "anonymous": false,
      "inputs": [
        {
          "indexed": false,
          "internalType": "address",
          "name": "from",
          "type": "address"
        },
        {
          "indexed": false,
          "internalType": "uint256",
          "name": "amount",
          "type": "uint256"
        }
      ],
      "name": "Received",
      "type": "event"
    },
    {
      "inputs": [],
      "name": "doDeposit",
      "outputs": [],
      "stateMutability": "payable",
      "type": "function"
    },
    {
      "inputs": [
        {
          "internalType": "uint256",
          "name": "wad",
          "type": "uint256"
        }
      ],
      "name": "doWithdraw",
      "outputs": [],
      "stateMutability": "nonpayable",
      "type": "function"
    },
    {
      "inputs": [],
      "name": "stored",
      "outputs": [
        {
          "internalType": "uint256",
          "name": "",
          "type": "uint256"
        }
      ],
      "stateMutability": "view",
      "type": "function"
    },
    {
      "inputs": [],
      "name": "weth",
      "outputs": [
        {
          "internalType": "contract IWETH9",
          "name": "",
          "type": "address"
        }
      ],
      "stateMutability": "view",
      "type": "function"
    },
    {
      "stateMutability": "payable",
      "type": "receive"
    }
  ],
  "bytecode": "0x608060405234801561001057600080fd5b5060405161064b38038061064b833981810160405281019061003291906100db565b806000806101000a81548173ffffffffffffffffffffffffffffffffffffffff021916908373ffffffffffffffffffffffffffffffffffffffff16021790555050610108565b600080fd5b600073ffffffffffffffffffffffffffffffffffffffff82169050919050565b60006100a88261007d565b9050919050565b6100b88161009d565b81146100c357600080fd5b50565b6000815190506100d5816100af565b92915050565b6000602082840312156100f1576100f0610078565b5b60006100ff848285016100c6565b91505092915050565b610534806101176000396000f3fe6080604052600436106100435760003560e01c8063010f59d7146100a15780633fc8cef3146100ca578063e582dd31146100f5578063e848df64146101205761009c565b3661009c57600180600082825461005a91906102e1565b925050819055507f88a5966d370b9919b20f3e2c13ff65706f196a4e32cc2c12bf57088f885258743334604051610092929190610365565b60405180910390a1005b600080fd5b3480156100ad57600080fd5b506100c860048036038101906100c391906103bf565b61012a565b005b3480156100d657600080fd5b506100df6101b8565b6040516100ec919061044b565b60405180910390f35b34801561010157600080fd5b5061010a6101dc565b6040516101179190610466565b60405180910390f35b6101286101e2565b005b60008054906101000a900473ffffffffffffffffffffffffffffffffffffffff1673ffffffffffffffffffffffffffffffffffffffff16632e1a7d4d826040518263ffffffff1660e01b81526004016101839190610466565b600060405180830381600087803b15801561019d57600080fd5b505af11580156101b1573d6000803e3d6000fd5b5050505050565b60008054906101000a900473ffffffffffffffffffffffffffffffffffffffff1681565b60015481565b60003411610225576040517f08c379a000000000000000000000000000000000000000000000000000000000815260040161021c906104de565b60405180910390fd5b60008054906101000a900473ffffffffffffffffffffffffffffffffffffffff1673ffffffffffffffffffffffffffffffffffffffff1663d0e30db0346040518263ffffffff1660e01b81526004016000604051808303818588803b15801561028d57600080fd5b505af11580156102a1573d6000803e3d6000fd5b5050505050565b6000819050919050565b7f4e487b7100000000000000000000000000000000000000000000000000000000600052601160045260246000fd5b60006102ec826102a8565b91506102f7836102a8565b925082820190508082111561030f5761030e6102b2565b5b92915050565b600073ffffffffffffffffffffffffffffffffffffffff82169050919050565b600061034082610315565b9050919050565b61035081610335565b82525050565b61035f816102a8565b82525050565b600060408201905061037a6000830185610347565b6103876020830184610356565b9392505050565b600080fd5b61039c816102a8565b81146103a757600080fd5b50565b6000813590506103b981610393565b92915050565b6000602082840312156103d5576103d461038e565b5b60006103e3848285016103aa565b91505092915050565b6000819050919050565b600061041161040c61040784610315565b6103ec565b610315565b9050919050565b6000610423826103f6565b9050919050565b600061043582610418565b9050919050565b6104458161042a565b82525050565b6000602082019050610460600083018461043c565b92915050565b600060208201905061047b6000830184610356565b92915050565b600082825260208201905092915050565b7f6e65656420657468000000000000000000000000000000000000000000000000600082015250565b60006104c8600883610481565b91506104d382610492565b602082019050919050565b600060208201905081810360008301526104f7816104bb565b905091905056fea2646970667358221220d37495bf9410a658390523a95c013fea7bbd4d9ae449fcd7b0c92780349648bc64736f6c63430008140033",
  "linkReferences": {},
  "deployedLinkReferences": {}
}