{
  "_format": "hh-sol-artifact-1",
  "contractName": "WETH9",
  "sourceName": "contracts/weth9.sol",
  "abi": [
    {
      "anonymous": false,
      "inputs": [
        {
          "indexed": true,
          "internalType": "address",
          "name": "dst",
          "type": "address"
        },
        {
          "indexed": false,
          "internalType": "uint256",
          "name": "wad",
          "type": "uint256"
        }
      ],
      "name": "Deposit",
      "type": "event"
    },
    {
      "anonymous": false,
      "inputs": [
        {
          "indexed": true,
          "internalType": "address",
          "name": "src",
          "type": "address"
        },
        {
          "indexed": false,
          "internalType": "uint256",
          "name": "wad",
          "type": "uint256"
        }
      ],
      "name": "Withdrawal",
      "type": "event"
    },
    {
      "inputs": [
        {
          "internalType": "address",
          "name": "",
          "type": "address"
        }
      ],
      "name": "balanceOf",
      "outputs": [
        {
          "internalType": "uint256",
          "name": "",
          "type": "uint256"
        }
      ],
      "stateMutability": "view",
      "type": "function"
    },
    {
      "inputs": [],
      "name": "decimals",
      "outputs": [
        {
          "internalType": "uint8",
          "name": "",
          "type": "uint8"
        }
      ],
      "stateMutability": "view",
      "type": "function"
    },
    {
      "inputs": [],
      "name": "deposit",
      "outputs": [],
      "stateMutability": "payable",
      "type": "function"
    },
    {
      "inputs": [],
      "name": "name",
      "outputs": [
        {
          "internalType": "string",
          "name": "",
          "type": "string"
        }
      ],
      "stateMutability": "view",
      "type": "function"
    },
    {
      "inputs": [],
      "name": "symbol",
      "outputs": [
        {
          "internalType": "string",
          "name": "",
          "type": "string"
        }
      ],
      "stateMutability": "view",
      "type": "function"
    },
    {
      "inputs": [
        {
          "internalType": "uint256",
          "name": "wad",
          "type": "uint256"
        }
      ],
      "name": "withdraw",
      "outputs": [],
      "stateMutability": "nonpayable",
      "type": "function"
    },
    {
      "stateMutability": "payable",
      "type": "receive"
    }
  ],
  "bytecode": "0x60806040526040518060400160405280600d81526020017f5772617070656420457468657200000000000000000000000000000000000000815250600090816200004a91906200033c565b506040518060400160405280600481526020017f5745544800000000000000000000000000000000000000000000000000000000815250600190816200009191906200033c565b506012600260006101000a81548160ff021916908360ff160217905550348015620000bb57600080fd5b5062000423565b600081519050919050565b7f4e487b7100000000000000000000000000000000000000000000000000000000600052604160045260246000fd5b7f4e487b7100000000000000000000000000000000000000000000000000000000600052602260045260246000fd5b600060028204905060018216806200014457607f821691505b6020821081036200015a5762000159620000fc565b5b50919050565b60008190508160005260206000209050919050565b60006020601f8301049050919050565b600082821b905092915050565b600060088302620001c47fffffffffffffffffffffffffffffffffffffffffffffffffffffffffffffffff8262000185565b620001d0868362000185565b95508019841693508086168417925050509392505050565b6000819050919050565b6000819050919050565b60006200021d620002176200021184620001e8565b620001f2565b620001e8565b9050919050565b6000819050919050565b6200023983620001fc565b62000251620002488262000224565b84845462000192565b825550505050565b600090565b6200026862000259565b620002758184846200022e565b505050565b5b818110156200029d57620002916000826200025e565b6001810190506200027b565b5050565b601f821115620002ec57620002b68162000160565b620002c18462000175565b81016020851015620002d1578190505b620002e9620002e08562000175565b8301826200027a565b50505b505050565b600082821c905092915050565b60006200031160001984600802620002f1565b1980831691505092915050565b60006200032c8383620002fe565b9150826002028217905092915050565b6200034782620000c2565b67ffffffffffffffff811115620003635762000362620000cd565b5b6200036f82546200012b565b6200037c828285620002a1565b600060209050601f831160018114620003b457600084156200039f578287015190505b620003ab85826200031e565b8655506200041b565b601f198416620003c48662000160565b60005b82811015620003ee57848901518255600182019150602085019450602081019050620003c7565b868310156200040e57848901516200040a601f891682620002fe565b8355505b6001600288020188555050505b505050505050565b6108f680620004336000396000f3fe6080604052600436106100595760003560e01c806306fdde03146101095780632e1a7d4d14610134578063313ce5671461015d57806370a082311461018857806395d89b41146101c5578063d0e30db0146101f057610104565b366101045734600360003373ffffffffffffffffffffffffffffffffffffffff1673ffffffffffffffffffffffffffffffffffffffff16815260200190815260200160002060008282546100ad9190610590565b925050819055503373ffffffffffffffffffffffffffffffffffffffff167fe1fffcc4923d04b559f4d29a8bfc6cda04eb5b0d3c460751c2402c5c5cc9109c346040516100fa91906105d3565b60405180910390a2005b600080fd5b34801561011557600080fd5b5061011e6101fa565b60405161012b919061067e565b60405180910390f35b34801561014057600080fd5b5061015b600480360381019061015691906106d1565b610288565b005b34801561016957600080fd5b506101726103f8565b60405161017f919061071a565b60405180910390f35b34801561019457600080fd5b506101af60048036038101906101aa9190610793565b61040b565b6040516101bc91906105d3565b60405180910390f35b3480156101d157600080fd5b506101da610423565b6040516101e7919061067e565b60405180910390f35b6101f86104b1565b005b60008054610207906107ef565b80601f0160208091040260200160405190810160405280929190818152602001828054610233906107ef565b80156102805780601f1061025557610100808354040283529160200191610280565b820191906000526020600020905b81548152906001019060200180831161026357829003601f168201915b505050505081565b80600360003373ffffffffffffffffffffffffffffffffffffffff1673ffffffffffffffffffffffffffffffffffffffff16815260200190815260200160002054101561030a576040517f08c379a00000000000000000000000000000000000000000000000000000000081526004016103019061086c565b60405180910390fd5b80600360003373ffffffffffffffffffffffffffffffffffffffff1673ffffffffffffffffffffffffffffffffffffffff1681526020019081526020016000206000828254610359919061088c565b925050819055503373ffffffffffffffffffffffffffffffffffffffff166108fc829081150290604051600060405180830381858888f193505050501580156103a6573d6000803e3d6000fd5b503373ffffffffffffffffffffffffffffffffffffffff167f7fcf532c15f0a6db0bd6d0e038bea71d30d808c7d98cb3bf7268a95bf5081b65826040516103ed91906105d3565b60405180910390a250565b600260009054906101000a900460ff1681565b60036020528060005260406000206000915090505481565b60018054610430906107ef565b80601f016020809104026020016040519081016040528092919081815260200182805461045c906107ef565b80156104a95780601f1061047e576101008083540402835291602001916104a9565b820191906000526020600020905b81548152906001019060200180831161048c57829003601f168201915b505050505081565b34600360003373ffffffffffffffffffffffffffffffffffffffff1673ffffffffffffffffffffffffffffffffffffffff16815260200190815260200160002060008282546105009190610590565b925050819055503373ffffffffffffffffffffffffffffffffffffffff167fe1fffcc4923d04b559f4d29a8bfc6cda04eb5b0d3c460751c2402c5c5cc9109c3460405161054d91906105d3565b60405180910390a2565b6000819050919050565b7f4e487b7100000000000000000000000000000000000000000000000000000000600052601160045260246000fd5b600061059b82610557565b91506105a683610557565b92508282019050808211156105be576105bd610561565b5b92915050565b6105cd81610557565b82525050565b60006020820190506105e860008301846105c4565b92915050565b600081519050919050565b600082825260208201905092915050565b60005b8381101561062857808201518184015260208101905061060d565b60008484015250505050565b6000601f19601f8301169050919050565b6000610650826105ee565b61065a81856105f9565b935061066a81856020860161060a565b61067381610634565b840191505092915050565b600060208201905081810360008301526106988184610645565b905092915050565b600080fd5b6106ae81610557565b81146106b957600080fd5b50565b6000813590506106cb816106a5565b92915050565b6000602082840312156106e7576106e66106a0565b5b60006106f5848285016106bc565b91505092915050565b600060ff82169050919050565b610714816106fe565b82525050565b600060208201905061072f600083018461070b565b92915050565b600073ffffffffffffffffffffffffffffffffffffffff82169050919050565b600061076082610735565b9050919050565b61077081610755565b811461077b57600080fd5b50565b60008135905061078d81610767565b92915050565b6000602082840312156107a9576107a86106a0565b5b60006107b78482850161077e565b91505092915050565b7f4e487b7100000000000000000000000000000000000000000000000000000000600052602260045260246000fd5b6000600282049050600182168061080757607f821691505b60208210810361081a576108196107c0565b5b50919050565b7f696e73756666696369656e742062616c616e6365000000000000000000000000600082015250565b60006108566014836105f9565b915061086182610820565b602082019050919050565b6000602082019050818103600083015261088581610849565b9050919050565b600061089782610557565b91506108a283610557565b92508282039050818111156108ba576108b9610561565b5b9291505056fea26469706673582212209168d132cf6bd1fe0f6e9845612f8c6e94d85f1e068310527d8a08d83f0e1a4f64736f6c63430008140033",
  "linkReferences": {},
  "deployedLinkReferences": {}
}